:020000040800F2
:1000000000280020ED100008891000089110000859
:1000100099100008A1100008A910000800000000B5
:10002000000000000000000000000000B110000807
:10003000BD10000800000000C9100008D51000081D
:100040003511000835110008351100083511000878
:100050003511000835110008351100083511000868
:100060003511000835110008351100083511000858
:100070003511000835110008351100083511000848
:100080003511000835110008351100083511000838
:100090003511000835110008351100083511000828
:1000A0003511000835110008351100083511000818
:1000B0003511000835110008000000003511000856
:1000C0003511000800000000000000003511000894
:1000D0000000000035110008351100080000000084
:1000E0003511000835110008351100080000000026
:1000F0000000000000000000000000000000000000
:0C01000000000000000000005FF808F1A3
:1001100010B5054C237833B9044B13B10448AFF341
:1001200000800123237010BDC000002000000000EB
:10013000782F000808B5034B1BB103490348AFF300
:10014000008008BD00000000C4000020782F0008D7
:10015000034613F8012B002AFBD1181A0138704707
:1001600081F0004102E000BF83F0004330B54FEA68
:1001700041044FEA430594EA050F08BF90EA020FD5
:100180001FBF54EA000C55EA020C7FEA645C7FEA68
:10019000655C00F0E2804FEA5454D4EB5555B8BF8B
:1001A0006D420CDD2C4480EA020281EA030382EAFC
:1001B000000083EA010180EA020281EA0303362D8E
:1001C00088BF30BD11F0004F4FEA01314FF4801C61
:1001D0004CEA113102D0404261EB410113F0004F73
:1001E0004FEA03334CEA133302D0524263EB43032A
:1001F00094EA050F00F0A780A4F10104D5F1200EC8
:100200000DDB02FA0EFC22FA05F2801841F1000122
:1002100003FA0EF2801843FA05F359410EE0A5F1F6
:1002200020050EF1200E012A03FA0EFC28BF4CF027
:10023000020C43FA05F3C01851EBE37101F00045DD
:1002400007D54FF0000EDCF1000C7EEB00006EEBEA
:100250000101B1F5801F1BD3B1F5001F0CD3490874
:100260005FEA30004FEA3C0C04F101044FEA4452CB
:1002700012F5800F80F09A80BCF1004F08BF5FEA52
:10028000500C50F1000041EB045141EA050130BD32
:100290005FEA4C0C404141EB0101013C28BFB1F544
:1002A000801FE9D291F0000F04BF01460020B1FA8F
:1002B00081F308BF2033A3F10B03B3F120020CDA62
:1002C0000C3208DD02F1140CC2F10C0201FA0CF040
:1002D00021FA02F10CE002F11402D8BFC2F1200CA5
:1002E00001FA02F120FA0CFCDCBF41EA0C0190405B
:1002F000E41AA2BF01EB0451294330BD6FEA0404A4
:100300001F3C1CDA0C340EDC04F11404C4F120028E
:1003100020FA04F001FA02F340EA030021FA04F3A0
:1003200045EA030130BDC4F10C04C4F1200220FAF7
:1003300002F001FA04F340EA0300294630BD21FA35
:1003400004F0294630BD94F0000F83F4801306BFFB
:1003500081F480110134013D4EE77FEA645C18BFEF
:100360007FEA655C29D094EA050F08BF90EA020F86
:1003700005D054EA000C04BF1946104630BD91EA7E
:10038000030F1EBF0021002030BD5FEA545C05D181
:100390004000494128BF41F0004130BD14F58004C0
:1003A0003CBF01F5801130BD01F0004545F0FE4134
:1003B00041F470014FF0000030BD7FEA645C1ABF69
:1003C000194610467FEA655C1CBF0B46024650EAA0
:1003D000013406BF52EA033591EA030F41F40021CC
:1003E00030BD00BF90F0000F04BF0021704730B552
:1003F0004FF4806404F132044FF000054FF0000127
:1004000050E700BF90F0000F04BF0021704730B5E7
:100410004FF4806404F1320410F0004548BF4042BC
:100420004FF000013EE700BF42004FEAE2014FEA11
:1004300031014FEA02701FBF12F07F4393F07F4FEC
:1004400081F06051704732F07F4208BF704793F0EF
:100450007F4F04BF41F40021704730B54FF4607402
:1004600001F0004521F000411CE700BF50EA010205
:1004700008BF704730B54FF000050AE050EA0102AE
:1004800008BF704730B511F0004502D5404261EB1E
:1004900041014FF4806404F132045FEA915C3FF45F
:1004A000D8AE4FF003025FEADC0C18BF03325FEAFC
:1004B000DC0C18BF033202EBDC02C2F1200300FAAD
:1004C00003FC20FA02F001FA03FE40EA0E0021FAD2
:1004D00002F11444BDE600BF70B54FF0FF0C4CF4C0
:1004E000E06C1CEA11541DBF1CEA135594EA0C0F72
:1004F00095EA0C0F00F0DEF82C4481EA030621EAAD
:100500004C5123EA4C5350EA013518BF52EA0335E7
:1005100041F4801143F4801338D0A0FB02CE4FF099
:100520000005E1FB02E506F00042E0FB03E54FF0C9
:100530000006E1FB03569CF0000F18BF4EF0010EC1
:10054000A4F1FF04B6F5007F64F5407404D25FEABD
:100550004E0E6D4146EB060642EAC62141EA555170
:100560004FEAC52040EA5E504FEACE2EB4F1FD0CB2
:1005700088BFBCF5E06F1ED8BEF1004F08BF5FEA30
:10058000500E50F1000041EB045170BD06F00046E2
:1005900046EA010140EA020081EA0301B4EB5C048F
:1005A000C2BFD4EB0C0541EA045170BD41F4801187
:1005B0004FF0000E013C00F3AB8014F1360FDEBFAC
:1005C000002001F0004170BDC4F10004203C35DA88
:1005D0000C341BDC04F11404C4F1200500FA05F30B
:1005E00020FA04F001FA05F240EA020001F00042AC
:1005F00021F0004110EBD37021FA04F642EB060122
:100600005EEA430E08BF20EAD37070BDC4F10C044B
:10061000C4F1200500FA04F320FA05F001FA04F20F
:1006200040EA020001F0004110EBD37041F10001FB
:100630005EEA430E08BF20EAD37070BDC4F1200506
:1006400000FA05F24EEA020E20FA04F301FA05F26E
:1006500043EA020321FA04F001F0004121FA04F216
:1006600020EA020000EBD3705EEA430E08BF20EAE6
:10067000D37070BD94F0000F0FD101F00046400020
:1006800041EB010111F4801F08BF013CF7D041EAA2
:10069000060195F0000F18BF704703F000465200A6
:1006A00043EB030313F4801F08BF013DF7D043EA77
:1006B0000603704794EA0C0F0CEA135518BF95EA2D
:1006C0000C0F0CD050EA410618BF52EA4306D1D1B4
:1006D00081EA030101F000414FF0000070BD50EAD3
:1006E000410606BF1046194652EA430619D094EA5D
:1006F0000C0F02D150EA013613D195EA0C0F05D147
:1007000052EA03361CBF104619460AD181EA03019A
:1007100001F0004141F0FE4141F470014FF0000052
:1007200070BD41F0FE4141F4780170BD70B54FF0ED
:10073000FF0C4CF4E06C1CEA11541DBF1CEA13556D
:1007400094EA0C0F95EA0C0F00F0A7F8A4EB05044F
:1007500081EA030E52EA03354FEA013100F0888046
:100760004FEA03334FF0805545EA131343EA12630F
:100770004FEA022245EA111545EA10654FEA0026C4
:100780000EF000419D4208BF964244F1FD0404F57D
:10079000407402D25B084FEA3202B61A65EB0305D9
:1007A0005B084FEA32024FF480104FF4002CB6EB96
:1007B000020E75EB030E22BFB61A754640EA0C0016
:1007C0005B084FEA3202B6EB020E75EB030E22BF56
:1007D000B61A754640EA5C005B084FEA3202B6EB97
:1007E000020E75EB030E22BFB61A754640EA9C0056
:1007F0005B084FEA3202B6EB020E75EB030E22BF26
:10080000B61A754640EADC0055EA060E18D04FEAE3
:10081000051545EA16754FEA06164FEAC30343EA83
:1008200052734FEAC2025FEA1C1CC0D111F4801F50
:100830000BD141EA00014FF000004FF0004CB6E749
:1008400011F4801F04BF01430020B4F1FD0C88BFE8
:10085000BCF5E06F3FF6AFAEB5EB030C04BFB6EBF3
:10086000020C5FEA500C50F1000041EB045170BDE6
:100870000EF0004E4EEA113114EB5C04C2BFD4EB13
:100880000C0541EA045170BD41F480114FF0000E97
:10089000013C90E645EA060E8DE60CEA135594EA13
:1008A0000C0F08BF95EA0C0F3FF43BAF94EA0C0F16
:1008B0000AD150EA01347FF434AF95EA0C0F7FF48B
:1008C00025AF104619462CE795EA0C0F06D152EADF
:1008D00003353FF4FDAE1046194622E750EA4106C3
:1008E00018BF52EA43067FF4C5AE50EA41047FF4D4
:1008F0000DAF52EA43057FF4EBAE12E74FF0FF3C39
:1009000006E000BF4FF0010C02E000BF4FF0010C09
:100910004DF804CD4FEA410C7FEA6C5C4FEA430C82
:1009200018BF7FEA6C5C1BD001B050EA410C0CBFD1
:1009300052EA430C91EA030F02BF90EA020F002033
:10094000704710F1000F91EA030F58BF994208BF9A
:1009500090422CBFD8176FEAE37040F00100704757
:100960004FEA410C7FEA6C5C02D150EA013C07D1AE
:100970004FEA430C7FEA6C5CD6D152EA033CD3D0F9
:100980005DF8040B704700BF8446104662468C46F3
:100990001946634600E000BF01B5FFF7B7FF002826
:1009A00048BF10F1000F01BD4DF808EDFFF7F4FF4F
:1009B0000CBF012000205DF808FB00BF4DF808EDDA
:1009C000FFF7EAFF34BF012000205DF808FB00BFFD
:1009D0004DF808EDFFF7E0FF94BF012000205DF81F
:1009E00008FB00BF4DF808EDFFF7CEFF94BF0120D4
:1009F00000205DF808FB00BF4DF808EDFFF7C4FFCD
:100A000034BF012000205DF808FB00BF4FEA410C15
:100A10007FEA6C5C02D150EA013C0AD14FEA430CF8
:100A20007FEA6C5C02D152EA033C02D14FF0000035
:100A300070474FF0010070474FEA410212F5001273
:100A400015D211D56FF47873B3EB625212D94FEA15
:100A5000C12343F0004343EA505311F0004F23FAFF
:100A600002F018BF404270474FF00000704750EA54
:100A7000013005D111F0004008BF6FF00040704711
:100A80004FF00000704700BF80B584B000AF00F0A9
:100A900053FB0023FB6032237B600023BB6000F02C
:100AA0005FF900F099F900F007FAA04B1B681846AF
:100AB000FFF7A8FC02460B464FF000004FF08041C4
:100AC00001F060FA02460B4610461946FFF7B4FFE4
:100AD0000346974A1360974B974A1A60954B1B68D9
:100AE0001846FFF735FB03461A46944B1A604FF43D
:100AF0000051934800F006FE0346FB70FB78002B84
:100B00003FD1904B1B78012B3BD1142000F076FB9A
:100B10004FF400518A4800F0F5FD0346002B30D118
:100B2000894B1B680133884A1360874B1B68022B73
:100B300002DD854B00221A60834B1B68002B03D11A
:100B40007C4B7D4A1A600EE07F4B1B68012B03D162
:100B5000784B7E4A1A6006E07B4B1B68022B02D161
:100B6000744B7B4A1A607B4B00221A600023BB60E7
:100B7000704B1B681846FFF7EBFA03461A466F4B9B
:100B80001A60704AFB781370BA687B689A4203DA7D
:100B9000BB680133BB6010E00023BB606D4B1A687B
:100BA000664B1B689A4205DA6A4B1B680133694A37
:100BB000136002E0674B00221A60FB68052B00F20D
:100BC000928001A252F823F0BB0C00088F0C0008A1
:100BD000630C0008370C00080B0C0008E10B000840
:100BE000544B19685B4B1B68544A126893FBF2F034
:100BF00000FB02F29B1A0B441B78184600F0C8F960
:100C00000346DA43544BDA6071E04A4B1968514BA2
:100C10001B680133494A126893FBF2F000FB02F2B1
:100C20009B1A0B441B78184600F0B2F90346DA43CE
:100C3000494BDA605BE03F4B1968464B1B68023357
:100C40003E4A126893FBF2F000FB02F29B1A0B443F
:100C50001B78184600F09CF90346DA433E4BDA60F5
:100C600045E0344B19683B4B1B680333334A126829
:100C700093FBF2F000FB02F29B1A0B441B78184620
:100C800000F086F90346DA43334BDA602FE0294B54
:100C90001968304B1B680433284A126893FBF2F042
:100CA00000FB02F29B1A0B441B78184600F070F907
:100CB0000346DA43284BDA6019E01E4B1968254BCE
:100CC0001B6805331D4A126893FBF2F000FB02F229
:100CD0009B1A0B441B78184600F05AF90346DA4376
:100CE0001D4BDA6003E01C4B4FF6FF72DA60012007
:100CF00000F084FA194B0022DA60174B4FF6FF72AE
:100D0000DA60012000F07AFA00F05CF90346134A39
:100D10009B00D360FB680133FB60044B1B68FA68DF
:100D20009A42FFF6E4AE0023FB60E0E600000020FC
:100D30004C01002050010020040000205801002038
:100D40000010014063000020540100202400002016
:100D5000440000205C01002000080140000C01401C
:100D600080B590B000AF07F1180328220021184683
:100D700001F0D6F83B1D00221A605A609A60DA60D2
:100D80001A610223BB610123BB621023FB620023B3
:100D90007B6307F11803184600F0E4FC0346002BC0
:100DA00001D000F039F90F237B600023BB600023E2
:100DB000FB6000233B6100237B613B1D0021184643
:100DC00000F052FF0346002B01D000F025F900BFD0
:100DD0004037BD4680BD000080B588B000AF07F148
:100DE000100300221A605A609A60DA602E4B9B69E9
:100DF0002D4A43F0100393612B4B9B6903F01003C2
:100E0000FB60FB68284B9B69274A43F0040393610E
:100E1000254B9B6903F00403BB60BB68224B9B69B5
:100E2000214A43F0080393611F4B9B6903F00803B9
:100E30007B607B6800224FF6FF711C4800F079FC54
:100E40000022F8211A4800F074FC4FF400533B6173
:100E500000237B610023BB6107F11003194615488D
:100E600000F0D4FA4FF6FF733B6101237B6100234E
:100E7000BB610223FB6107F1100319460B4800F028
:100E8000C5FAF8233B6101237B610023BB61022388
:100E9000FB6107F110031946054800F0B7FA00BFDF
:100EA0002037BD4680BD00BF001002400008014051
:100EB000000C01400010014080B400AF334B48F6F5
:100EC000CF021A60314B42F63F225A602F4BF32279
:100ED0009A602E4B42F23F22DA602C4B48F6F30226
:100EE0001A612A4B48F6C3025A61284B40F6FB02AE
:100EF0009A61264B48F6CC02DA61244B42F2332247
:100F00001A62224B7C225A62204B49F2C0429A62FA
:100F10001E4BF022DA621D4B40F2CC521A631B4B7F
:100F200041F2CC125A63194BFF229A63174B48F6D1
:100F3000C702DA63154B44F2FF021A64134B49F6F9
:100F4000C7025A64114B48F6BB029A640F4B42F237
:100F50000322DA640D4BFC221A650C4B44F2C042AA
:100F60005A650A4B45F2CC029A65084B4FF4AA42E7
:100F7000DA65064B4FF414521A66044B44F23342BE
:100F80005A6600BFBD4680BC704700BFDC00002031
:100F900080B483B000AF0346FB71FB79402B08D9C6
:100FA000FB795A2B05D8FB79413B054A52F823308F
:100FB00000E0002318460C37BD4680BC704700BFD8
:100FC000DC00002080B500AF114B1B68012B15D150
:100FD000104B1B681846FFF715FA02460B464FF0F8
:100FE00000004FF0804100F0CDFF02460B46104656
:100FF0001946FFF721FD0346054A1360044B1B68A1
:101000005B10034A1360024B1B68184680BD00BF8B
:101010004C0100200000002080B400AF72B600BF79
:1010200000BFFDE780B485B000AF154B9B69144A43
:1010300043F001039361124B9B6903F00103BB6012
:10104000BB680F4BDB690E4A43F08053D3610C4BF6
:10105000DB6903F080537B607B680A4B5B68FB6055
:10106000FB6823F0E063FB60FB6843F08063FB6098
:10107000044AFB68536000BF1437BD4680BC70470C
:10108000001002400000014080B400AF00BFFDE747
:1010900080B400AF00BFFDE780B400AF00BFFDE744
:1010A00080B400AF00BFFDE780B400AF00BFFDE734
:1010B00080B400AF00BFBD4680BC704780B400AFB5
:1010C00000BFBD4680BC704780B400AF00BFBD46C6
:1010D00080BC704780B500AF00F074F800BF80BDE1
:1010E00080B400AF00BFBD4680BC7047FFF7F8FF7B
:1010F0000B480C490C4A002302E0D458C450043376
:10110000C4188C42F9D3094A094C002301E013604A
:101110000432A242FBD300F011FFFFF7B5FC704789
:1011200000000020C0000020D82F0008C0000020D0
:101130009C020020FEE7000080B500AF084B1B6852
:10114000074A43F010031360032000F02BF90F202F
:1011500000F008F8FFF766FF0023184680BD00BFC7
:101160000020024080B582B000AF7860124B1A6850
:10117000124B1B7819464FF47A73B3FBF1F3B2FBB1
:10118000F3F3184600F035F90346002B01D0012394
:101190000EE07B680F2B0AD8002279684FF0FF30F1
:1011A00000F00BF9064A7B681360002300E001237E
:1011B00018460837BD4680BD640000206C00002042
:1011C0006800002080B400AF054B1B781A46054B21
:1011D0001B681344034A136000BFBD4680BC7047C0
:1011E0006C0000206001002080B400AF024B1B683F
:1011F0001846BD4680BC70476001002080B584B0B1
:1012000000AF7860FFF7F0FFB8607B68FB60FB68B9
:10121000B3F1FF3F05D00A4B1B781A46FB68134415
:10122000FB6000BFFFF7E0FF0246BB68D31AFA6815
:101230009A42F7D800BF00BF1037BD4680BD00BF3F
:101240006C00002080B485B000AF78607B6803F04C
:101250000703FB600C4BDB68BB60BA684FF6FF030B
:101260001340BB60FB681A02BB68134343F0BF63C3
:1012700043F40033BB60044ABB68D36000BF14373B
:10128000BD4680BC704700BF00ED00E080B400AFF9
:10129000044BDB681B0A03F007031846BD4680BCFD
:1012A000704700BF00ED00E080B483B000AF03469C
:1012B0003960FB7197F90730002B0ADB3B68DAB223
:1012C0000C4997F907301201D2B20B4483F800237E
:1012D0000AE03B68DAB20849FB7903F00F03043BEC
:1012E0001201D2B20B441A7600BF0C37BD4680BC47
:1012F000704700BF00E100E000ED00E080B489B07D
:1013000000AFF860B9607A60FB6803F00703FB6127
:10131000FB69C3F10703042B28BF0423BB61FB69EE
:101320000433062B02D9FB69033B00E000237B61F9
:101330004FF0FF32BB6902FA03F3DA43BB681A408D
:101340007B699A404FF0FF317B6901FA03F3D9437F
:101350007B680B40134318462437BD4680BC70475A
:1013600080B582B000AF78607B68013BB3F1807FCD
:1013700001D301230FE00A4A7B68013B53600F2130
:101380004FF0FF30FFF790FF054B00229A60044BAF
:1013900007221A60002318460837BD4680BD00BFEB
:1013A00010E000E080B582B000AF78607868FFF7A9
:1013B00049FF00BF0837BD4680BD80B586B000AF8D
:1013C0000346B9607A60FB7300237B61FFF75EFF21
:1013D00078617A68B9687869FFF790FF024697F9F3
:1013E0000F3011461846FFF75FFF00BF1837BD46A4
:1013F00080BD80B582B000AF78607868FFF7B0FF3D
:10140000034618460837BD4680BD000080B48BB047
:1014100000AF7860396000237B6200233B6261E1AA
:1014200001227B6A02FA03F3FB613B681B68FA69DD
:101430001340BB61BA69FB699A4240F050813B6836
:101440005B68974A93425ED0954A934275D8954A15
:10145000934258D0934A93426FD8934A934252D0C2
:10146000914A934269D8914A93424CD08F4A934211
:1014700063D88F4A934246D08D4A93425DD8122B4F
:101480002AD8122B59D801A252F823F007150008C8
:10149000E1140008F3140008351500083B15000896
:1014A0003B1500083B1500083B1500083B150008DC
:1014B0003B1500083B1500083B1500083B150008CC
:1014C0003B1500083B1500083B1500083B150008BC
:1014D000E9140008FD140008764A934213D02CE06A
:1014E0003B68DB683B6229E03B68DB6804333B62B6
:1014F00024E03B68DB6808333B621FE03B68DB6845
:101500000C333B621AE03B689B68002B02D104233A
:101510003B6213E03B689B68012B05D108233B62CB
:101520007B68FA691A6109E008233B627B68FA6903
:101530005A6103E000233B6200E000BFBB69FF2B60
:1015400001D87B6801E07B6804337B61BB69FF2BBA
:1015500002D87B6A9B0002E07B6A083B9B003B61F0
:101560007B691A680F213B6901FA03F3DB431A40D8
:10157000396A3B6901FA03F31A437B691A603B68D5
:101580005B6803F08053002B00F0A9804A4B9B69F5
:10159000494A43F001039361474B9B6903F0010300
:1015A000BB60BB68454A7B6A9B08023352F8233014
:1015B000FB607B6A03F003039B000F2202FA03F334
:1015C000DB43FA681340FB607B683D4A93420DD0D1
:1015D0007B683C4A934207D07B683B4A934201D1E7
:1015E000022304E0032302E0012300E000237A6ADF
:1015F00002F0030292009340FA681343FB602F4904
:101600007B6A9B080233FA6841F823203B685B68D9
:1016100003F48013002B06D02C4B9A682B49BB692E
:1016200013438B6006E0294B9A68BB69DB4327496B
:1016300013408B603B685B6803F40013002B06D0FB
:10164000224BDA682149BB691343CB6006E01F4B8C
:10165000DA68BB69DB431D491340CB603B685B68BC
:1016600003F40033002B06D0184B5A681749BB69A6
:1016700013434B6006E0154B5A68BB69DB431349C3
:1016800013404B603B685B6803F48033002B1FD032
:101690000E4B1A680D49BB6913430B601FE000BF76
:1016A0000000321000003110000022100000211054
:1016B0000000121000001110001002400000014054
:1016C00000080140000C01400010014000040140EE
:1016D0000B4B1A68BB69DB43094913400B607B6AFB
:1016E00001337B623B681A687B6A22FA03F3002BA2
:1016F0007FF496AE00BF00BF2C37BD4680BC70475C
:101700000004014080B485B000AF78600B467B8058
:101710007B689A687B881340002B02D00123FB73FF
:1017200001E00023FB73FB7B18461437BD4680BCE9
:10173000704780B483B000AF78600B467B8013465F
:101740007B707B78002B03D07A887B681A6103E07A
:101750007B881A047B681A6100BF0C37BD4680BCC9
:101760007047000080B586B000AF78607B68002BC2
:1017700001D1012372E27B681B6803F00103002B97
:1017800000F08780924B5B6803F00C03042B0CD0B5
:101790008F4B5B6803F00C03082B12D18C4B5B68FA
:1017A00003F48033B3F5803F0BD1894B1B6803F4FE
:1017B0000033002B6CD07B685B68002B68D1012361
:1017C0004CE27B685B68B3F5803F06D1804B1B68B9
:1017D0007F4A43F4803313602EE07B685B68002B04
:1017E0000CD17B4B1B687A4A23F480331360784B0F
:1017F0001B68774A23F4802313601DE07B685B68D5
:10180000B3F5A02F0CD1724B1B68714A43F48023AF
:1018100013606F4B1B686E4A43F4803313600BE018
:101820006B4B1B686A4A23F480331360684B1B6858
:10183000674A23F4802313607B685B68002B13D016
:10184000FFF7D2FC386108E0FFF7CEFC02463B69A7
:10185000D31A642B01D9032300E25D4B1B6803F408
:101860000033002BF0D014E0FFF7BEFC386108E035
:10187000FFF7BAFC02463B69D31A642B01D9032354
:10188000ECE1534B1B6803F40033002BF0D100E074
:1018900000BF7B681B6803F00203002B63D04C4B36
:1018A0005B6803F00C03002B0BD0494B5B6803F023
:1018B0000C03082B1CD1464B5B6803F48033002BD0
:1018C00016D1434B1B6803F00203002B05D07B6845
:1018D0001B69012B01D00123C0E13D4B1B6823F0A4
:1018E000F8027B685B69DB00394913430B603AE01F
:1018F0007B681B69002B20D0364B01221A60FFF752
:1019000073FC386108E0FFF76FFC02463B69D31AAD
:10191000022B01D90323A1E12D4B1B6803F0020325
:10192000002BF0D02A4B1B6823F0F8027B685B6920
:10193000DB00274913430B6015E0264B00221A6099
:10194000FFF752FC386108E0FFF74EFC02463B69A6
:10195000D31A022B01D9032380E11D4B1B6803F02E
:101960000203002BF0D17B681B6803F00803002BF7
:101970003AD07B689B69002B19D0174B01221A6063
:10198000FFF732FC386108E0FFF72EFC02463B69A6
:10199000D31A022B01D9032360E10D4B5B6A03F0DC
:1019A0000203002BF0D0012000F09CFA1CE00A4B4F
:1019B00000221A60FFF718FC38610FE0FFF714FCF3
:1019C00002463B69D31A022B08D9032346E100BF24
:1019D000001002400000424280044242924B5B6A87
:1019E00003F00203002BE9D17B681B6803F00403BA
:1019F000002B00F0A6800023FB758B4BDB6903F006
:101A00008053002B0DD1884BDB69874A43F080530C
:101A1000D361854BDB6903F08053BB60BB68012356
:101A2000FB75824B1B6803F48073002B18D17F4B2E
:101A30001B687E4A43F480731360FFF7D5FB38615F
:101A400008E0FFF7D1FB02463B69D31A642B01D9AA
:101A5000032303E1754B1B6803F48073002BF0D064
:101A60007B68DB68012B06D16F4B1B6A6E4A43F023
:101A7000010313622DE07B68DB68002B0CD16A4BFD
:101A80001B6A694A23F001031362674B1B6A664AAB
:101A900023F0040313621CE07B68DB68052B0CD188
:101AA000614B1B6A604A43F0040313625E4B1B6A7E
:101AB0005D4A43F0010313620BE05B4B1B6A5A4A19
:101AC00023F001031362584B1B6A574A23F00403A7
:101AD00013627B68DB68002B15D0FFF785FB38614C
:101AE0000AE0FFF781FB02463B69D31A41F28832D4
:101AF000934201D90323B1E04B4B1B6A03F002036D
:101B0000002BEED014E0FFF76FFB38610AE0FFF71F
:101B10006BFB02463B69D31A41F28832934201D9EA
:101B200003239BE0404B1B6A03F00203002BEED122
:101B3000FB7D012B05D13C4BDB693B4A23F08053F5
:101B4000D3617B68DB69002B00F08780364B5B68D4
:101B500003F00C03082B61D07B68DB69022B46D1B4
:101B6000334B00221A60FFF73FFB386108E0FFF7B4
:101B70003BFB02463B69D31A022B01D903236DE0DC
:101B8000294B1B6803F00073002BF0D17B681B6AA4
:101B9000B3F5803F08D1244B5B6823F400327B68A7
:101BA0009B68214913434B601F4B5B6823F47412FD
:101BB0007B68196A7B685B6A0B431B4913434B6064
:101BC0001B4B01221A60FFF70FFB386108E0FFF79B
:101BD0000BFB02463B69D31A022B01D903233DE0DC
:101BE000114B1B6803F00073002BF0D035E0104B55
:101BF00000221A60FFF7F8FA386108E0FFF7F4FAFC
:101C000002463B69D31A022B01D9032326E0064B77
:101C10001B6803F00073002BF0D11EE07B68DB69CA
:101C2000012B07D1012319E0001002400070004091
:101C3000600042420B4B5B68FB60FB6803F4803240
:101C40007B681B6A9A4206D1FB6803F470127B68BA
:101C50005B6A9A4201D0012300E00023184618373E
:101C6000BD4680BD0010024080B584B000AF7860F2
:101C700039607B68002B01D10123D0E06A4B1B68DF
:101C800003F007033A689A4210D9674B1B6823F0A8
:101C9000070265493B6813430B60634B1B6803F005
:101CA00007033A689A4201D00123B8E07B681B68B9
:101CB00003F00203002B20D07B681B6803F00403B1
:101CC000002B05D0594B5B68584A43F4E0635360DE
:101CD0007B681B6803F00803002B05D0534B5B683F
:101CE000524A43F460535360504B5B6823F0F00258
:101CF0007B689B684D4913434B607B681B6803F00E
:101D00000103002B40D07B685B68012B07D1474B58
:101D10001B6803F40033002B15D101237FE07B689F
:101D20005B68022B07D1414B1B6803F00073002B4B
:101D300009D1012373E03D4B1B6803F00203002B24
:101D400001D101236BE0394B5B6823F003027B6810
:101D50005B68364913434B60FFF746FAF8600AE0C8
:101D6000FFF742FA0246FB68D31A41F288329342E7
:101D700001D9032353E02D4B5B6803F00C027B6811
:101D80005B689B009A42EBD1274B1B6803F007036B
:101D90003A689A4210D2244B1B6823F0070222496A
:101DA0003B6813430B60204B1B6803F007033A6842
:101DB0009A4201D0012332E07B681B6803F00403E0
:101DC000002B08D0194B5B6823F4E0627B68DB686A
:101DD000164913434B607B681B6803F00803002B14
:101DE00009D0124B5B6823F460527B681B69DB00EF
:101DF0000E4913434B6000F021F802460B4B5B6821
:101E00001B0903F00F030A49CB5C22FA03F3094ACA
:101E10001360094B1B681846FFF7A4F90023184606
:101E20001037BD4680BD00BF0020024000100240B8
:101E3000902F0008640000206800002080B487B064
:101E400000AF0023FB600023BB6000237B61002305
:101E50007B6000233B611E4B5B68FB60FB6803F00B
:101E60000C03042B02D0082B03D027E0194B3B6155
:101E700027E0FB689B0C03F00F03174AD35C7B60E1
:101E8000FB6803F48033002B10D0114B5B685B0CB4
:101E900003F00103114AD35CBB607B680D4A03FB6E
:101EA00002F2BB68B2FBF3F37B6104E07B680C4A8F
:101EB00002FB03F37B617B693B6102E0054B3B6105
:101EC00000BF3B6918461C37BD4680BC704700BF49
:101ED0000010024000127A00A02F0008B02F000866
:101EE00000093D0080B485B000AF78600A4B1B68E4
:101EF0000A4AA2FB03235B0A7A6802FB03F3FB6036
:101F000000BFFB685A1EFA60002BF9D100BF00BF6A
:101F10001437BD4680BC704764000020D34D62106A
:101F200003460244934200D1704703F8011BF9E7CE
:101F3000014B1868704700BF7000002070B5002684
:101F40000C4D0D4B5B1B9C10A64209D1002601F0E5
:101F500013F80A4D0A4B5B1B9C10A64205D170BDBD
:101F600055F8043B98470136EEE755F8043B98478F
:101F70000136F2E7D02F0008D02F0008D02F00083C
:101F8000D42F00082DE9F84314461D4680468946A3
:101F900000F06EF8224606460F462B46204629469C
:101FA000FEF734FD78B90022002340464946FEF78B
:101FB000FBFCD8B10022002320462946FEF7F4FCA2
:101FC00028B10026254F30463946BDE8F883204623
:101FD000294600F045F80028F5D020462946002281
:101FE0000023FEF7EBFC0028EDD02CE0304639460C
:101FF00000F036F8A0B10022002330463946FEF743
:10200000D3FC0028DFD04046494600F029F80028DC
:10201000D9D02046294600F023F80028D3D012E07A
:102020004046494600F01CF80028E4D020462946E6
:1020300000F016F80028DED032463B4630463946DE
:10204000FEF7E4FC20B9FFF773FF22230360BAE731
:10205000FFF76EFF21230360B5E700BF0000F03FEC
:1020600041F0004000F58010C00F704700000000F4
:102070002DE9F04F23F0004B0D4652EA0B0191463B
:102080009A46044693B010D12319684885F400227B
:1020900052419942904122D24A465346204629460F
:1020A000FEF764F813B0BDE8F08F9846604B174612
:1020B00025F000429A422E460090029214D9009BCD
:1020C00006F1404606F580161E43E5D14B465749BA
:1020D000DB188AF4002252419E429141DCD3002059
:1020E000544913B0BDE8F08F13D09B45E7D8029B4D
:1020F00052D0002E15DB002F40F087804D4A9345CB
:1021000040F00784B8F1000FC0F2DA842046294677
:10211000C8E70028C0D19345BED800F00A84029BCE
:10212000E7E7454A934500F29083444A934500F21D
:102130009183002F40F0B983B8F1804F00F0CB8439
:1021400020462946049300F077FD009A049B002A5C
:1021500038D0F20F013A52EA070C63D00024013F55
:10216000174314BF334D364DBBF1844FCDE90845BD
:102170006AD9344B029A9B45304B40F20F849A4205
:1021800000F2B984B8F1000FC0F2B984002013B096
:10219000BDE8F04F00F0F6BD002F90D1029B009AF1
:1021A00003F1404303F58013134398D0234B029A65
:1021B0009A4240F25F84B8F1000FC0F2D7844846DB
:1021C00051466FE71B4A26F0404C944502D0029AD4
:1021D000002ABED1B8F1000FC0F24484002EBFF631
:1021E00061AF029B03F1404A0AF5801A5AEA070AD6
:1021F00040F0798402460B4610461946FDF7B4FFBD
:1022000002460B46FEF792FA4CE700272046294685
:10221000049300F011FD009A049B002AD2D0F20F23
:10222000013A9BE722462B46E6E700BF0000F0FF9D
:102230000000F07F0000F03FFFFF3F43FFFFEF3F54
:102240000000F0BF0000F043CD4A3240002A40F0C9
:102250000284CC4B0022FEF73FF96FF034040B46AA
:102260001A15A2F2FF3202EB0408C74AC3F31303A4
:1022700043F07F54934244F4401407DDC34A934231
:1022800040F3438408F10108A4F5801400220023E0
:1022900000260025BE4FCDE90C23CDE90667CDE928
:1022A0001023DDE906232146CDE90401FDF75CFF9B
:1022B000DDE9062306460F46DDE90401FDF756FF7A
:1022C00002460B460020B249FEF730FA8C468346A0
:1022D00063465A4630463946CDE90ABCFEF7FCF85B
:1022E00083468C46CDE902BCDDE902BC00204FF0FC
:1022F000000B641044F0005404F5002359190446FF
:102300000D4602460B4658466146CDE90EBCCDE966
:102310000001FEF7E1F802460B4630463946FDF76C
:1023200023FFDDE9062306460F4620462946FDF732
:102330001BFF02460B46DDE90401FDF715FFDDE951
:102340000023FEF7C9F802460B4630463946FDF732
:102350000BFFDDE90A23FEF7BFF8DDE902BCCDE99A
:102360000401634661465A465846FEF7B5F872A323
:10237000D3E9002304460D46FEF7AEF870A3D3E977
:102380000023FDF7F3FE22462B46FEF7A5F86EA3C9
:10239000D3E90023FDF7EAFE22462B46FEF79CF820
:1023A0006BA3D3E90023FDF7E1FE22462B46FEF79F
:1023B00093F869A3D3E90023FDF7D8FE22462B4604
:1023C000FEF78AF866A3D3E90023FDF7CFFE224685
:1023D00006460F462B4620462946FEF77DF8024664
:1023E0000B4630463946FEF777F8DDE900670446CC
:1023F0000D46DDE9020132463B46FDF7B7FEDDE959
:102400000423FEF769F822462B46FDF7AFFE32465D
:102410003B46CDE9060130463946FEF75DF800221D
:102420005C4B04460D46FDF7A1FEDDE90623FDF7F2
:102430009DFEDDE90EBC0F46DDE900015A463B4634
:10244000CDE90ABC5E46FEF747F80022CDE900015F
:10245000504B30463946FDF787FE22462B46FDF7A6
:1024600083FE02460B46DDE90601FDF77DFEDDE950
:102470000223FEF731F8324604460D46DDE9040139
:102480003B46FEF729F802460B4620462946FDF753
:102490006DFE06460F46DDE9000132463B46FDF77C
:1024A00065FEDDE90ABC30A3D3E900235846CDE937
:1024B00002BC0D465C46FEF70FF8DDE90023CDE9CE
:1024C000000120462946FDF74FFE02460B463046E6
:1024D0003946FDF749FE26A3D3E90023FDF7FCFFAB
:1024E00002460B462046294614461D4622A3D3E940
:1024F0000023FDF7F1FF02460B4620462946FDF773
:1025000035FEDDE91023FDF731FE044640460D4659
:10251000FDF778FF06460F46DDE9000122462B460F
:10252000FDF724FEDDE90C23FDF720FE32463B4695
:1025300032E000BFAFF30080EF4E454A287ECA3F2D
:1025400065DBC9934A86CD3F01411DA96074D13F27
:102550004D268F515555D53FFFAB6FDBB66DDB3F39
:10256000033333333333E33F000000E009C7EE3F6A
:10257000FD033ADC09C7EE3FF5015B14E02F3EBED8
:102580000000F07F000040438E98030079B60B00F6
:102590000000F03F00000840FDF7E8FDDDE902BC67
:1025A00032465E463B4658460F46FDF7DDFDDDE907
:1025B0000C23FDF7D9FDDDE90023FDF7D5FD02462B
:1025C0000B4620462946FDF7CFFD0023CDE9009AB2
:1025D0000093DDE90034CDE904011A46CDE9023467
:1025E000484623465146FDF7BFFD32463B46FDF7C0
:1025F00073FF4A4604460D46DDE904015346FDF7E4
:102600006BFF02460B4620462946FDF7AFFDDDE98C
:10261000022304460D4630463946CDE90245FDF712
:102620005BFF06460F46204629463B463246FDF7ED
:102630009DFDD54B044699420D46884640F349819D
:1026400001F13F4303F5E003034340F07482BCA370
:10265000D3E90023DDE90201FDF788FD02460B46C0
:102660002046294614461D4632463B46FDF77CFD72
:1026700002460B4620462946FEF7BEF9002840F0E8
:102680005A824FF4007300204344C3F30A52BF4CF4
:10269000A2F2FF321441C3F3130AC2F1140204EA96
:1026A00003014AF4801A0B464AFA02FAB8F1000F05
:1026B000024639463046B8BFCAF1000AFDF754FD5C
:1026C00006460F46DDE9020132463B46FDF74EFD68
:1026D0000D464FEA0A5B00249BA3D3E90023204662
:1026E0002946FDF7F9FE3246804689463B4620469C
:1026F0002946FDF739FD02460B46DDE90201FDF7EB
:1027000033FD93A3D3E90023FDF7E6FE02460B4613
:102710002046294614461D468FA3D3E90023FDF722
:10272000DBFE02460B4620462946FDF71FFD064606
:102730000F4632463B4640464946FDF717FD4246A6
:102740004B4604460D46FDF70FFD02460B4630464C
:102750003946FDF709FD2246804689462B4620462C
:102760002946FDF7B9FE7EA3D3E9002306460F46AE
:10277000FDF7B2FE7CA3D3E90023FDF7F5FC32465A
:102780003B46FDF7A9FE7AA3D3E90023FDF7EEFC53
:1027900032463B46FDF7A0FE77A3D3E90023FDF7C1
:1027A000E3FC32463B46FDF797FE75A3D3E90023D1
:1027B000FDF7DCFC32463B46FDF78EFE02460B463B
:1027C00020462946FDF7D0FC06460F4632463B46DA
:1027D00020462946FDF780FE02460B463046394624
:1027E00016461F4600224FF08043FDF7BDFC02460F
:1027F0000B4630463946FDF799FF424606460F46DE
:102800004B4620462946FDF767FE42464B46FDF7FC
:10281000ADFC02460B4630463946FDF7A5FC224684
:102820002B46FDF7A1FC02460B4600205849FDF758
:102830009BFC0C465C44B4F5801FC0F278812146B5
:10284000DDE90823FDF748FE2CE4002F00F08B8122
:102850000227DBE44FEA2B52A2F2FF32142A40F3A4
:102860001681C2F1340227FA02F101FA02F2BA42E9
:1028700000F08D81CFB9B8F1804F049300F02B8127
:102880002046294600F0D8F9009B002B7FF4CAAC03
:102890003F4A26F04047974200F09E81029A049BEF
:1028A000002A00F0DA80002753E4204629460493EA
:1028B00000F0C2F9009B002B7FF4B4AC344A26F040
:1028C00040479742EAD1B8F1000FC0F27C8100275F
:1028D00087E4DFF8C0C021F00043634540F2E880A0
:1028E0002D4B0B4403430AD132463B46FDF73CFCDB
:1028F000DDE90223FEF776F800283FF4C2AEDDE9F9
:10290000080100220023FEF759F8003818BF012003
:102910003DE4B8F1804F00F0DE80A2F580129045D2
:102920007FF40EAC2046294613B0BDE8F04F00F00E
:1029300035BA002F7FF4B0AB38E400BFAFF30080AE
:10294000FE822B654715973C00000000432EE63FB2
:10295000EF39FAFE422EE63F396CA80C615C20BECE
:10296000D0A4BE726937663EF16BD2C541BDBB3E95
:102970002CDE25AF6A56113F93BDBE166CC1663F73
:102980003E5555555555C53FFFFF8F400000F0FFA0
:102990000000F03FFFCB904000346F3F9A42C0F000
:1029A000D480029AA04B9A424FF0000200F2E280DB
:1029B0009D4BFDF7D9FB90A3D3E9002304460D46B8
:1029C000FDF78AFD8EA3D3E9002306460F46204675
:1029D0002946FDF781FD0022CDE90001934B2046F9
:1029E0002946FDF779FD02460B4687A1D1E9000192
:1029F000FDF7BAFB22462B46FDF76EFD02460B465D
:102A000000208B49FDF7B0FB22462B46CDE90201A1
:102A100020462946FDF760FD02460B46DDE902012E
:102A2000FDF75AFD7AA3D3E90023FDF755FD0246D1
:102A30000B46DDE90001FDF797FB04460D463046E5
:102A4000394622462B46FDF791FB002032463B4695
:102A500006460F46B1E5002402E4B8F1000FBFF6C8
:102A600036AF002702460B4600206F49FDF75EFE99
:102A7000FFF7B4BBB8F1000F4FF000004FF00001BA
:102A8000BFF610AB48460AF10041FFF70BBB002F21
:102A90007FF40BAFC2F114024BFA02F101FA02F219
:102AA0005A45614A7BD093453FF42CABFFF744BBBA
:102AB0005F4A93427FD8DDE90023934692460AE6B7
:102AC00022462B4600205849FDF730FEFFF7EABAB0
:102AD000B8F1804F47D122462B4620462946FDF7C4
:102AE000FBFCFFF7DFBA012F7FF4DCAA01F1004302
:102AF0001946FFF7D7BAB8F1000F7FF747AB0020B0
:102B000013B0BDE8F04F00F043B90022494B4FF439
:102B10008025CDE9062340A3D3E90023CDE90C238A
:102B20003FA3D3E90023CDE91023FFF7BABB5246F8
:102B300000F086F884E60022DDE908010023FDF7B5
:102B40003DFF003818BF0120DAE70022DDE9080167
:102B50000023FDF733FF003818BF0120B8F1000F44
:102B6000BFF615ABCCE70227FFF7EABA0020002139
:102B7000FFF798BA0023DDE90801FDF71FFF0038D1
:102B800018BF0120B8F1000FBADCFFF700BB002F1F
:102B90009ED001F00101C1F10207FFF737BB934559
:102BA0003FF4B0AAB8F1804F95D001F00101C1F116
:102BB0000207FFF7C5BA4FF480121B15A3F2FE33CC
:102BC00042FA03F35FE502460B4600201649FDF783
:102BD000ADFD009FFFF705BBB8F1000FBFF677AE64
:102BE00002460B4600201049FDF7A0FD0027FFF725
:102BF000F8BA00BFAFF30080000000604715F73F50
:102C000044DF5DF80BAE543E555555555555D53FEF
:102C1000FE822B654715F73F0000004003B8E23FF6
:102C200006D0CF43EBFD4C3E0000F03F0000D03F0C
:102C30000000E03F0000F83F21F0004319467047D4
:102C40002DE9F0411646C1F30A52074688460B4665
:102C50006ABB21F00043034327D0334B0022FDF72A
:102C60003BFC324B07469E4288463CDB0B46C1F399
:102C70000A52363A4CF250318E4221DC164440F270
:102C8000FE7296421CDC002E26DC16F1350F31DB7D
:102C900023F0FF4121F4E001363641EA06550022D7
:102CA00038462946224BFDF717FCBDE8F08140F27B
:102CB000FF7C6245DED10246FDF758FABDE8F0819F
:102CC000454615A3D3E9002363F31E052946194899
:102CD000FDF702FCBDE8F0816FF31E53384643EA6E
:102CE0000651BDE8F0810EA3D3E90023FDF7F4FB04
:102CF000BDE8F08108F0004444F0D27141F4B731EE
:102D000007A3D3E900230C4841F01F01FDF7E4FBC2
:102D1000CBE700BFAFF300809C7500883CE4377EB2
:102D200059F3F8C21F6EA50100005043B03CFFFFED
:102D30000000903C9C75008859F3F8C2D0B5064657
:102D40000F461446FFF7F4F80346394630461C6038
:102D5000D0BD00BF00B583B080B1104603F1004183
:102D6000CDE9000110461946DDE90023FDF7B4FB6B
:102D7000222203B05DF804EBFFF7E0BF10461946CE
:102D8000EEE700BF00224FF08053FFF7E3BF00BF24
:102D900000224FF0E043FFF7DDBF00BF734A2DE98B
:102DA000F84F8A4306460F4600F0AC8000290C46D7
:102DB000034655DD081562D0C4F31302C107A0F223
:102DC000FF3742F4801203D4520002EBD3725B004F
:102DD000002616244FF40011B446520002EBD372C1
:102DE0007F105B000CEB010090424FEAD3754FEA75
:102DF000430303DC00EB010C121A0E44013C05EB0B
:102E000042024FEA5101EDD120254FF00040A0468B
:102E10000AE043D0510001EBD371013D0A464FEA6D
:102E200043034FEA500045D0624500EB080EF0DD49
:102E3000BEF1000F0EEB00080CDBE146A2EB0C012B
:102E4000CC469E4588BF01F1FF314900A3EB0E033C
:102E50000444E0E7B8F1000FEFDB0CF10109EDE706
:102E600021F00042024344D000296ED1DA0A153C19
:102E70005B05002AFAD0D602204673D414460022FD
:102E80006400E502114602F10102F9D5C2F1200504
:102E900023FA05F52C439340401A8DE79E4502D94D
:102EA0004FEA4C01B7E7BEF1000F0EEB000822DB42
:102EB0000021CBE7194312D0DFF8B4A0DFF8B4B09B
:102EC000DAE90001DBE90023FDF74EF9DAE90089D0
:102ED00002460B4640464946FDF77AFDE0B96508D3
:102EE000731003F17F5303F5001303EB075145EA19
:102EF000C670BDE8F88FB8F1000FD9DB00210CF1E6
:102F0000010CA3E702460B46FDF7E6FA32463B46C4
:102F1000FDF72CF9BDE8F88FB4F1FF3FDAE90001C5
:102F2000DBE900231AD0DAE90089FDF71FF9024630
:102F30000B4640464946FDF741FD88B1A31C04F10C
:102F4000020508BF01366D08CAE702460B46FDF7C9
:102F50000BF902460B46FDF7E9FBCAE70136BFE76E
:102F60000134BCE74FF0FF31144695E70000F07FD5
:102F7000C02F0008B82F0008F8B500BFF8BC08BC87
:102F80009E467047F8B500BFF8BC08BC9E46704727
:102F90000000000000000000010203040607080909
:102FA00002030405060708090A0B0C0D0E0F10108A
:102FB000010200000000000059F3F8C21F6EA501D5
:082FC000000000000000F03FDA
:082FC80088D1FF7F0100000029
:042FD00035010008BF
:042FD40011010008DF
:102FD80006000000414E41204341524F4C494E41AA
:102FE8002043415252494C4C4F204C4F4D42414E88
:102FF800412000004D41524941204A554C49414E1B
:1030080041204E4945544F204D4F52454E4F2020A8
:10301800202000004C4155524120414C454A414E28
:10302800445241205041524144412047414D424F72
:103038004120000100127A00100000000100000089
:10304800740000200000000064010020CC01002072
:103058003402002000000000000000000000000012
:103068000000000000000000000000000000000058
:103078000000000000000000000000000000000048
:103088000000000000000000000000000000000038
:04000005080010EDF2
:00000001FF
